{
  "_format": "hh-sol-artifact-1",
  "contractName": "LostItemNFT",
  "sourceName": "contracts/LostItemNFT.sol",
  "abi": [
    {
      "inputs": [],
      "stateMutability": "nonpayable",
      "type": "constructor"
    },
    {
      "inputs": [],
      "name": "AccessControlBadConfirmation",
      "type": "error"
    },
    {
      "inputs": [
        {
          "internalType": "address",
          "name": "account",
          "type": "address"
        },
        {
          "internalType": "bytes32",
          "name": "neededRole",
          "type": "bytes32"
        }
      ],
      "name": "AccessControlUnauthorizedAccount",
      "type": "error"
    },
    {
      "inputs": [
        {
          "internalType": "address",
          "name": "sender",
          "type": "address"
        },
        {
          "internalType": "uint256",
          "name": "tokenId",
          "type": "uint256"
        },
        {
          "internalType": "address",
          "name": "owner",
          "type": "address"
        }
      ],
      "name": "ERC721IncorrectOwner",
      "type": "error"
    },
    {
      "inputs": [
        {
          "internalType": "address",
          "name": "operator",
          "type": "address"
        },
        {
          "internalType": "uint256",
          "name": "tokenId",
          "type": "uint256"
        }
      ],
      "name": "ERC721InsufficientApproval",
      "type": "error"
    },
    {
      "inputs": [
        {
          "internalType": "address",
          "name": "approver",
          "type": "address"
        }
      ],
      "name": "ERC721InvalidApprover",
      "type": "error"
    },
    {
      "inputs": [
        {
          "internalType": "address",
          "name": "operator",
          "type": "address"
        }
      ],
      "name": "ERC721InvalidOperator",
      "type": "error"
    },
    {
      "inputs": [
        {
          "internalType": "address",
          "name": "owner",
          "type": "address"
        }
      ],
      "name": "ERC721InvalidOwner",
      "type": "error"
    },
    {
      "inputs": [
        {
          "internalType": "address",
          "name": "receiver",
          "type": "address"
        }
      ],
      "name": "ERC721InvalidReceiver",
      "type": "error"
    },
    {
      "inputs": [
        {
          "internalType": "address",
          "name": "sender",
          "type": "address"
        }
      ],
      "name": "ERC721InvalidSender",
      "type": "error"
    },
    {
      "inputs": [
        {
          "internalType": "uint256",
          "name": "tokenId",
          "type": "uint256"
        }
      ],
      "name": "ERC721NonexistentToken",
      "type": "error"
    },
    {
      "anonymous": false,
      "inputs": [
        {
          "indexed": true,
          "internalType": "address",
          "name": "owner",
          "type": "address"
        },
        {
          "indexed": true,
          "internalType": "address",
          "name": "approved",
          "type": "address"
        },
        {
          "indexed": true,
          "internalType": "uint256",
          "name": "tokenId",
          "type": "uint256"
        }
      ],
      "name": "Approval",
      "type": "event"
    },
    {
      "anonymous": false,
      "inputs": [
        {
          "indexed": true,
          "internalType": "address",
          "name": "owner",
          "type": "address"
        },
        {
          "indexed": true,
          "internalType": "address",
          "name": "operator",
          "type": "address"
        },
        {
          "indexed": false,
          "internalType": "bool",
          "name": "approved",
          "type": "bool"
        }
      ],
      "name": "ApprovalForAll",
      "type": "event"
    },
    {
      "anonymous": false,
      "inputs": [
        {
          "indexed": false,
          "internalType": "uint256",
          "name": "_fromTokenId",
          "type": "uint256"
        },
        {
          "indexed": false,
          "internalType": "uint256",
          "name": "_toTokenId",
          "type": "uint256"
        }
      ],
      "name": "BatchMetadataUpdate",
      "type": "event"
    },
    {
      "anonymous": false,
      "inputs": [
        {
          "indexed": true,
          "internalType": "uint256",
          "name": "tokenId",
          "type": "uint256"
        },
        {
          "indexed": true,
          "internalType": "address",
          "name": "finder",
          "type": "address"
        },
        {
          "indexed": true,
          "internalType": "address",
          "name": "loster",
          "type": "address"
        }
      ],
      "name": "ItemClaimed",
      "type": "event"
    },
    {
      "anonymous": false,
      "inputs": [
        {
          "indexed": true,
          "internalType": "uint256",
          "name": "tokenId",
          "type": "uint256"
        },
        {
          "indexed": true,
          "internalType": "address",
          "name": "finder",
          "type": "address"
        },
        {
          "indexed": false,
          "internalType": "string",
          "name": "tokenURI",
          "type": "string"
        }
      ],
      "name": "ItemMinted",
      "type": "event"
    },
    {
      "anonymous": false,
      "inputs": [
        {
          "indexed": false,
          "internalType": "uint256",
          "name": "_tokenId",
          "type": "uint256"
        }
      ],
      "name": "MetadataUpdate",
      "type": "event"
    },
    {
      "anonymous": false,
      "inputs": [
        {
          "indexed": true,
          "internalType": "bytes32",
          "name": "role",
          "type": "bytes32"
        },
        {
          "indexed": true,
          "internalType": "bytes32",
          "name": "previousAdminRole",
          "type": "bytes32"
        },
        {
          "indexed": true,
          "internalType": "bytes32",
          "name": "newAdminRole",
          "type": "bytes32"
        }
      ],
      "name": "RoleAdminChanged",
      "type": "event"
    },
    {
      "anonymous": false,
      "inputs": [
        {
          "indexed": true,
          "internalType": "bytes32",
          "name": "role",
          "type": "bytes32"
        },
        {
          "indexed": true,
          "internalType": "address",
          "name": "account",
          "type": "address"
        },
        {
          "indexed": true,
          "internalType": "address",
          "name": "sender",
          "type": "address"
        }
      ],
      "name": "RoleGranted",
      "type": "event"
    },
    {
      "anonymous": false,
      "inputs": [
        {
          "indexed": true,
          "internalType": "bytes32",
          "name": "role",
          "type": "bytes32"
        },
        {
          "indexed": true,
          "internalType": "address",
          "name": "account",
          "type": "address"
        },
        {
          "indexed": true,
          "internalType": "address",
          "name": "sender",
          "type": "address"
        }
      ],
      "name": "RoleRevoked",
      "type": "event"
    },
    {
      "anonymous": false,
      "inputs": [
        {
          "indexed": true,
          "internalType": "address",
          "name": "from",
          "type": "address"
        },
        {
          "indexed": true,
          "internalType": "address",
          "name": "to",
          "type": "address"
        },
        {
          "indexed": true,
          "internalType": "uint256",
          "name": "tokenId",
          "type": "uint256"
        }
      ],
      "name": "Transfer",
      "type": "event"
    },
    {
      "inputs": [],
      "name": "DEFAULT_ADMIN_ROLE",
      "outputs": [
        {
          "internalType": "bytes32",
          "name": "",
          "type": "bytes32"
        }
      ],
      "stateMutability": "view",
      "type": "function"
    },
    {
      "inputs": [],
      "name": "MINTER_ROLE",
      "outputs": [
        {
          "internalType": "bytes32",
          "name": "",
          "type": "bytes32"
        }
      ],
      "stateMutability": "view",
      "type": "function"
    },
    {
      "inputs": [
        {
          "internalType": "address",
          "name": "to",
          "type": "address"
        },
        {
          "internalType": "uint256",
          "name": "tokenId",
          "type": "uint256"
        }
      ],
      "name": "approve",
      "outputs": [],
      "stateMutability": "nonpayable",
      "type": "function"
    },
    {
      "inputs": [
        {
          "internalType": "address",
          "name": "owner",
          "type": "address"
        }
      ],
      "name": "balanceOf",
      "outputs": [
        {
          "internalType": "uint256",
          "name": "",
          "type": "uint256"
        }
      ],
      "stateMutability": "view",
      "type": "function"
    },
    {
      "inputs": [
        {
          "internalType": "address",
          "name": "loster",
          "type": "address"
        },
        {
          "internalType": "uint256",
          "name": "tokenId",
          "type": "uint256"
        }
      ],
      "name": "claimItem",
      "outputs": [],
      "stateMutability": "nonpayable",
      "type": "function"
    },
    {
      "inputs": [
        {
          "internalType": "uint256",
          "name": "tokenId",
          "type": "uint256"
        }
      ],
      "name": "getApproved",
      "outputs": [
        {
          "internalType": "address",
          "name": "",
          "type": "address"
        }
      ],
      "stateMutability": "view",
      "type": "function"
    },
    {
      "inputs": [
        {
          "internalType": "bytes32",
          "name": "role",
          "type": "bytes32"
        }
      ],
      "name": "getRoleAdmin",
      "outputs": [
        {
          "internalType": "bytes32",
          "name": "",
          "type": "bytes32"
        }
      ],
      "stateMutability": "view",
      "type": "function"
    },
    {
      "inputs": [
        {
          "internalType": "bytes32",
          "name": "role",
          "type": "bytes32"
        },
        {
          "internalType": "address",
          "name": "account",
          "type": "address"
        }
      ],
      "name": "grantRole",
      "outputs": [],
      "stateMutability": "nonpayable",
      "type": "function"
    },
    {
      "inputs": [
        {
          "internalType": "bytes32",
          "name": "role",
          "type": "bytes32"
        },
        {
          "internalType": "address",
          "name": "account",
          "type": "address"
        }
      ],
      "name": "hasRole",
      "outputs": [
        {
          "internalType": "bool",
          "name": "",
          "type": "bool"
        }
      ],
      "stateMutability": "view",
      "type": "function"
    },
    {
      "inputs": [
        {
          "internalType": "address",
          "name": "owner",
          "type": "address"
        },
        {
          "internalType": "address",
          "name": "operator",
          "type": "address"
        }
      ],
      "name": "isApprovedForAll",
      "outputs": [
        {
          "internalType": "bool",
          "name": "",
          "type": "bool"
        }
      ],
      "stateMutability": "view",
      "type": "function"
    },
    {
      "inputs": [
        {
          "internalType": "address",
          "name": "finder",
          "type": "address"
        },
        {
          "internalType": "string",
          "name": "tokenURI",
          "type": "string"
        }
      ],
      "name": "mintItem",
      "outputs": [
        {
          "internalType": "uint256",
          "name": "",
          "type": "uint256"
        }
      ],
      "stateMutability": "nonpayable",
      "type": "function"
    },
    {
      "inputs": [],
      "name": "name",
      "outputs": [
        {
          "internalType": "string",
          "name": "",
          "type": "string"
        }
      ],
      "stateMutability": "view",
      "type": "function"
    },
    {
      "inputs": [
        {
          "internalType": "uint256",
          "name": "tokenId",
          "type": "uint256"
        }
      ],
      "name": "ownerOf",
      "outputs": [
        {
          "internalType": "address",
          "name": "",
          "type": "address"
        }
      ],
      "stateMutability": "view",
      "type": "function"
    },
    {
      "inputs": [
        {
          "internalType": "bytes32",
          "name": "role",
          "type": "bytes32"
        },
        {
          "internalType": "address",
          "name": "callerConfirmation",
          "type": "address"
        }
      ],
      "name": "renounceRole",
      "outputs": [],
      "stateMutability": "nonpayable",
      "type": "function"
    },
    {
      "inputs": [
        {
          "internalType": "bytes32",
          "name": "role",
          "type": "bytes32"
        },
        {
          "internalType": "address",
          "name": "account",
          "type": "address"
        }
      ],
      "name": "revokeRole",
      "outputs": [],
      "stateMutability": "nonpayable",
      "type": "function"
    },
    {
      "inputs": [
        {
          "internalType": "address",
          "name": "from",
          "type": "address"
        },
        {
          "internalType": "address",
          "name": "to",
          "type": "address"
        },
        {
          "internalType": "uint256",
          "name": "tokenId",
          "type": "uint256"
        }
      ],
      "name": "safeTransferFrom",
      "outputs": [],
      "stateMutability": "nonpayable",
      "type": "function"
    },
    {
      "inputs": [
        {
          "internalType": "address",
          "name": "from",
          "type": "address"
        },
        {
          "internalType": "address",
          "name": "to",
          "type": "address"
        },
        {
          "internalType": "uint256",
          "name": "tokenId",
          "type": "uint256"
        },
        {
          "internalType": "bytes",
          "name": "data",
          "type": "bytes"
        }
      ],
      "name": "safeTransferFrom",
      "outputs": [],
      "stateMutability": "nonpayable",
      "type": "function"
    },
    {
      "inputs": [
        {
          "internalType": "address",
          "name": "operator",
          "type": "address"
        },
        {
          "internalType": "bool",
          "name": "approved",
          "type": "bool"
        }
      ],
      "name": "setApprovalForAll",
      "outputs": [],
      "stateMutability": "nonpayable",
      "type": "function"
    },
    {
      "inputs": [
        {
          "internalType": "bytes4",
          "name": "interfaceId",
          "type": "bytes4"
        }
      ],
      "name": "supportsInterface",
      "outputs": [
        {
          "internalType": "bool",
          "name": "",
          "type": "bool"
        }
      ],
      "stateMutability": "view",
      "type": "function"
    },
    {
      "inputs": [],
      "name": "symbol",
      "outputs": [
        {
          "internalType": "string",
          "name": "",
          "type": "string"
        }
      ],
      "stateMutability": "view",
      "type": "function"
    },
    {
      "inputs": [
        {
          "internalType": "uint256",
          "name": "tokenId",
          "type": "uint256"
        }
      ],
      "name": "tokenURI",
      "outputs": [
        {
          "internalType": "string",
          "name": "",
          "type": "string"
        }
      ],
      "stateMutability": "view",
      "type": "function"
    },
    {
      "inputs": [
        {
          "internalType": "address",
          "name": "from",
          "type": "address"
        },
        {
          "internalType": "address",
          "name": "to",
          "type": "address"
        },
        {
          "internalType": "uint256",
          "name": "tokenId",
          "type": "uint256"
        }
      ],
      "name": "transferFrom",
      "outputs": [],
      "stateMutability": "nonpayable",
      "type": "function"
    },
    {
      "inputs": [
        {
          "internalType": "uint256",
          "name": "tokenId",
          "type": "uint256"
        },
        {
          "internalType": "string",
          "name": "newTokenURI",
          "type": "string"
        }
      ],
      "name": "updateTokenURI",
      "outputs": [],
      "stateMutability": "nonpayable",
      "type": "function"
    }
  ],
  "bytecode": "0x608060405234801561001057600080fd5b506040518060400160405280600c81526020017f4c6f7374416e64466f756e6400000000000000000000000000000000000000008152506040518060400160405280600381526020017f4c41460000000000000000000000000000000000000000000000000000000000815250816000908161008c91906104aa565b50806001908161009c91906104aa565b5050506100b26000801b336100e960201b60201c565b506100e37f9f2df0fed2c77648de5860a4cc508cd0818c85b8b8a1ab4ceeef8d981c8956a6336100e960201b60201c565b5061057c565b60006100fb83836101e760201b60201c565b6101dc5760016007600085815260200190815260200160002060000160008473ffffffffffffffffffffffffffffffffffffffff1673ffffffffffffffffffffffffffffffffffffffff16815260200190815260200160002060006101000a81548160ff02191690831515021790555061017961025260201b60201c565b73ffffffffffffffffffffffffffffffffffffffff168273ffffffffffffffffffffffffffffffffffffffff16847f2f8788117e7eff1d82e926ec794901d17c78024a50270940304540a733656f0d60405160405180910390a4600190506101e1565b600090505b92915050565b60006007600084815260200190815260200160002060000160008373ffffffffffffffffffffffffffffffffffffffff1673ffffffffffffffffffffffffffffffffffffffff16815260200190815260200160002060009054906101000a900460ff16905092915050565b600033905090565b600081519050919050565b7f4e487b7100000000000000000000000000000000000000000000000000000000600052604160045260246000fd5b7f4e487b7100000000000000000000000000000000000000000000000000000000600052602260045260246000fd5b600060028204905060018216806102db57607f821691505b6020821081036102ee576102ed610294565b5b50919050565b60008190508160005260206000209050919050565b60006020601f8301049050919050565b600082821b905092915050565b6000600883026103567fffffffffffffffffffffffffffffffffffffffffffffffffffffffffffffffff82610319565b6103608683610319565b95508019841693508086168417925050509392505050565b6000819050919050565b6000819050919050565b60006103a76103a261039d84610378565b610382565b610378565b9050919050565b6000819050919050565b6103c18361038c565b6103d56103cd826103ae565b848454610326565b825550505050565b600090565b6103ea6103dd565b6103f58184846103b8565b505050565b5b818110156104195761040e6000826103e2565b6001810190506103fb565b5050565b601f82111561045e5761042f816102f4565b61043884610309565b81016020851015610447578190505b61045b61045385610309565b8301826103fa565b50505b505050565b600082821c905092915050565b600061048160001984600802610463565b1980831691505092915050565b600061049a8383610470565b9150826002028217905092915050565b6104b38261025a565b67ffffffffffffffff8111156104cc576104cb610265565b5b6104d682546102c3565b6104e182828561041d565b600060209050601f8311600181146105145760008415610502578287015190505b61050c858261048e565b865550610574565b601f198416610522866102f4565b60005b8281101561054a57848901518255600182019150602085019450602081019050610525565b868310156105675784890151610563601f891682610470565b8355505b6001600288020188555050505b505050505050565b612df58061058b6000396000f3fe608060405234801561001057600080fd5b506004361061014d5760003560e01c80636352211e116100c3578063b85177ce1161007c578063b85177ce146103c0578063b88d4fde146103dc578063c87b56dd146103f8578063d539139314610428578063d547741f14610446578063e985e9c5146104625761014d565b80636352211e146102d857806370a082311461030857806391d148541461033857806395d89b4114610368578063a217fddf14610386578063a22cb465146103a45761014d565b806318e97fd11161011557806318e97fd11461021c57806323b872dd14610238578063248a9ca3146102545780632f2ff15d1461028457806336568abe146102a057806342842e0e146102bc5761014d565b806301ffc9a71461015257806306fdde0314610182578063081812fc146101a0578063095ea7b3146101d0578063110bcd45146101ec575b600080fd5b61016c600480360381019061016791906120fb565b610492565b6040516101799190612143565b60405180910390f35b61018a6104a4565b60405161019791906121ee565b60405180910390f35b6101ba60048036038101906101b59190612246565b610536565b6040516101c791906122b4565b60405180910390f35b6101ea60048036038101906101e591906122fb565b610552565b005b61020660048036038101906102019190612470565b610568565b60405161021391906124db565b60405180910390f35b610236600480360381019061023191906124f6565b610621565b005b610252600480360381019061024d9190612552565b610642565b005b61026e600480360381019061026991906125db565b610744565b60405161027b9190612617565b60405180910390f35b61029e60048036038101906102999190612632565b610764565b005b6102ba60048036038101906102b59190612632565b610786565b005b6102d660048036038101906102d19190612552565b610801565b005b6102f260048036038101906102ed9190612246565b610821565b6040516102ff91906122b4565b60405180910390f35b610322600480360381019061031d9190612672565b610833565b60405161032f91906124db565b60405180910390f35b610352600480360381019061034d9190612632565b6108ed565b60405161035f9190612143565b60405180910390f35b610370610958565b60405161037d91906121ee565b60405180910390f35b61038e6109ea565b60405161039b9190612617565b60405180910390f35b6103be60048036038101906103b991906126cb565b6109f1565b005b6103da60048036038101906103d591906122fb565b610a07565b005b6103f660048036038101906103f191906127ac565b610aa2565b005b610412600480360381019061040d9190612246565b610ac7565b60405161041f91906121ee565b60405180910390f35b610430610bda565b60405161043d9190612617565b60405180910390f35b610460600480360381019061045b9190612632565b610bfe565b005b61047c6004803603810190610477919061282f565b610c20565b6040516104899190612143565b60405180910390f35b600061049d82610cb4565b9050919050565b6060600080546104b39061289e565b80601f01602080910402602001604051908101604052809291908181526020018280546104df9061289e565b801561052c5780601f106105015761010080835404028352916020019161052c565b820191906000526020600020905b81548152906001019060200180831161050f57829003601f168201915b5050505050905090565b600061054182610d2e565b5061054b82610db6565b9050919050565b610564828261055f610df3565b610dfb565b5050565b60007f9f2df0fed2c77648de5860a4cc508cd0818c85b8b8a1ab4ceeef8d981c8956a661059481610e0d565b600860008154809291906105a7906128fe565b9190505550600060085490506105bd8582610e21565b6105c78185610e3f565b8473ffffffffffffffffffffffffffffffffffffffff16817f45e1a7473e5135c71094f215f4700fa541e584ba551b9d3bbf50b3559b093c148660405161060e91906121ee565b60405180910390a3809250505092915050565b61063461062d83610821565b3384610e9b565b61063e8282610e3f565b5050565b600073ffffffffffffffffffffffffffffffffffffffff168273ffffffffffffffffffffffffffffffffffffffff16036106b45760006040517f64a0ae920000000000000000000000000000000000000000000000000000000081526004016106ab91906122b4565b60405180910390fd5b60006106c883836106c3610df3565b610f5f565b90508373ffffffffffffffffffffffffffffffffffffffff168173ffffffffffffffffffffffffffffffffffffffff161461073e578382826040517f64283d7b00000000000000000000000000000000000000000000000000000000815260040161073593929190612946565b60405180910390fd5b50505050565b600060076000838152602001908152602001600020600101549050919050565b61076d82610744565b61077681610e0d565b6107808383611179565b50505050565b61078e610df3565b73ffffffffffffffffffffffffffffffffffffffff168173ffffffffffffffffffffffffffffffffffffffff16146107f2576040517f6697b23200000000000000000000000000000000000000000000000000000000815260040160405180910390fd5b6107fc828261126b565b505050565b61081c83838360405180602001604052806000815250610aa2565b505050565b600061082c82610d2e565b9050919050565b60008073ffffffffffffffffffffffffffffffffffffffff168273ffffffffffffffffffffffffffffffffffffffff16036108a65760006040517f89c62b6400000000000000000000000000000000000000000000000000000000815260040161089d91906122b4565b60405180910390fd5b600360008373ffffffffffffffffffffffffffffffffffffffff1673ffffffffffffffffffffffffffffffffffffffff168152602001908152602001600020549050919050565b60006007600084815260200190815260200160002060000160008373ffffffffffffffffffffffffffffffffffffffff1673ffffffffffffffffffffffffffffffffffffffff16815260200190815260200160002060009054906101000a900460ff16905092915050565b6060600180546109679061289e565b80601f01602080910402602001604051908101604052809291908181526020018280546109939061289e565b80156109e05780601f106109b5576101008083540402835291602001916109e0565b820191906000526020600020905b8154815290600101906020018083116109c357829003601f168201915b5050505050905090565b6000801b81565b610a036109fc610df3565b838361135e565b5050565b610a1a610a1382610821565b3383610e9b565b6000610a2582610821565b9050610a42818484604051806020016040528060008152506114cd565b8273ffffffffffffffffffffffffffffffffffffffff168173ffffffffffffffffffffffffffffffffffffffff16837fb251d1b5c0defc12bc99e796bb6838d456d7e05b62f3f64b3e109f041550be8760405160405180910390a4505050565b610aad848484610642565b610ac1610ab8610df3565b858585856114f2565b50505050565b6060610ad282610d2e565b506000600660008481526020019081526020016000208054610af39061289e565b80601f0160208091040260200160405190810160405280929190818152602001828054610b1f9061289e565b8015610b6c5780601f10610b4157610100808354040283529160200191610b6c565b820191906000526020600020905b815481529060010190602001808311610b4f57829003601f168201915b505050505090506000610b7d6116a3565b90506000815103610b92578192505050610bd5565b600082511115610bc7578082604051602001610baf9291906129b9565b60405160208183030381529060405292505050610bd5565b610bd0846116ba565b925050505b919050565b7f9f2df0fed2c77648de5860a4cc508cd0818c85b8b8a1ab4ceeef8d981c8956a681565b610c0782610744565b610c1081610e0d565b610c1a838361126b565b50505050565b6000600560008473ffffffffffffffffffffffffffffffffffffffff1673ffffffffffffffffffffffffffffffffffffffff16815260200190815260200160002060008373ffffffffffffffffffffffffffffffffffffffff1673ffffffffffffffffffffffffffffffffffffffff16815260200190815260200160002060009054906101000a900460ff16905092915050565b60007f7965db0b000000000000000000000000000000000000000000000000000000007bffffffffffffffffffffffffffffffffffffffffffffffffffffffff1916827bffffffffffffffffffffffffffffffffffffffffffffffffffffffff19161480610d275750610d2682611723565b5b9050919050565b600080610d3a83611784565b9050600073ffffffffffffffffffffffffffffffffffffffff168173ffffffffffffffffffffffffffffffffffffffff1603610dad57826040517f7e273289000000000000000000000000000000000000000000000000000000008152600401610da491906124db565b60405180910390fd5b80915050919050565b60006004600083815260200190815260200160002060009054906101000a900473ffffffffffffffffffffffffffffffffffffffff169050919050565b600033905090565b610e0883838360016117c1565b505050565b610e1e81610e19610df3565b611986565b50565b610e3b8282604051806020016040528060008152506119d7565b5050565b80600660008481526020019081526020016000209081610e5f9190612b89565b507ff8e1a15aba9398e019f0b49df1a4fde98ee17ae345cb5f6b5e2c27f5033e8ce782604051610e8f91906124db565b60405180910390a15050565b610ea68383836119fb565b610f5a57600073ffffffffffffffffffffffffffffffffffffffff168373ffffffffffffffffffffffffffffffffffffffff1603610f1b57806040517f7e273289000000000000000000000000000000000000000000000000000000008152600401610f1291906124db565b60405180910390fd5b81816040517f177e802f000000000000000000000000000000000000000000000000000000008152600401610f51929190612c5b565b60405180910390fd5b505050565b600080610f6b84611784565b9050600073ffffffffffffffffffffffffffffffffffffffff168373ffffffffffffffffffffffffffffffffffffffff1614610fad57610fac818486610e9b565b5b600073ffffffffffffffffffffffffffffffffffffffff168173ffffffffffffffffffffffffffffffffffffffff161461103e57610fef6000856000806117c1565b6001600360008373ffffffffffffffffffffffffffffffffffffffff1673ffffffffffffffffffffffffffffffffffffffff168152602001908152602001600020600082825403925050819055505b600073ffffffffffffffffffffffffffffffffffffffff168573ffffffffffffffffffffffffffffffffffffffff16146110c1576001600360008773ffffffffffffffffffffffffffffffffffffffff1673ffffffffffffffffffffffffffffffffffffffff168152602001908152602001600020600082825401925050819055505b846002600086815260200190815260200160002060006101000a81548173ffffffffffffffffffffffffffffffffffffffff021916908373ffffffffffffffffffffffffffffffffffffffff160217905550838573ffffffffffffffffffffffffffffffffffffffff168273ffffffffffffffffffffffffffffffffffffffff167fddf252ad1be2c89b69c2b068fc378daa952ba7f163c4a11628f55a4df523b3ef60405160405180910390a4809150509392505050565b600061118583836108ed565b6112605760016007600085815260200190815260200160002060000160008473ffffffffffffffffffffffffffffffffffffffff1673ffffffffffffffffffffffffffffffffffffffff16815260200190815260200160002060006101000a81548160ff0219169083151502179055506111fd610df3565b73ffffffffffffffffffffffffffffffffffffffff168273ffffffffffffffffffffffffffffffffffffffff16847f2f8788117e7eff1d82e926ec794901d17c78024a50270940304540a733656f0d60405160405180910390a460019050611265565b600090505b92915050565b600061127783836108ed565b156113535760006007600085815260200190815260200160002060000160008473ffffffffffffffffffffffffffffffffffffffff1673ffffffffffffffffffffffffffffffffffffffff16815260200190815260200160002060006101000a81548160ff0219169083151502179055506112f0610df3565b73ffffffffffffffffffffffffffffffffffffffff168273ffffffffffffffffffffffffffffffffffffffff16847ff6391f5c32d9c69d2a47ea670b442974b53935d1edc7fd64eb21e047a839171b60405160405180910390a460019050611358565b600090505b92915050565b600073ffffffffffffffffffffffffffffffffffffffff168273ffffffffffffffffffffffffffffffffffffffff16036113cf57816040517f5b08ba180000000000000000000000000000000000000000000000000000000081526004016113c691906122b4565b60405180910390fd5b80600560008573ffffffffffffffffffffffffffffffffffffffff1673ffffffffffffffffffffffffffffffffffffffff16815260200190815260200160002060008473ffffffffffffffffffffffffffffffffffffffff1673ffffffffffffffffffffffffffffffffffffffff16815260200190815260200160002060006101000a81548160ff0219169083151502179055508173ffffffffffffffffffffffffffffffffffffffff168373ffffffffffffffffffffffffffffffffffffffff167f17307eab39ab6107e8899845ad3d59bd9653f200f220920489ca2b5937696c31836040516114c09190612143565b60405180910390a3505050565b6114d8848484611abc565b6114ec6114e3610df3565b858585856114f2565b50505050565b60008373ffffffffffffffffffffffffffffffffffffffff163b111561169c578273ffffffffffffffffffffffffffffffffffffffff1663150b7a02868685856040518563ffffffff1660e01b81526004016115519493929190612cd9565b6020604051808303816000875af192505050801561158d57506040513d601f19601f8201168201806040525081019061158a9190612d3a565b60015b611611573d80600081146115bd576040519150601f19603f3d011682016040523d82523d6000602084013e6115c2565b606091505b50600081510361160957836040517f64a0ae9200000000000000000000000000000000000000000000000000000000815260040161160091906122b4565b60405180910390fd5b805160208201fd5b63150b7a0260e01b7bffffffffffffffffffffffffffffffffffffffffffffffffffffffff1916817bffffffffffffffffffffffffffffffffffffffffffffffffffffffff19161461169a57836040517f64a0ae9200000000000000000000000000000000000000000000000000000000815260040161169191906122b4565b60405180910390fd5b505b5050505050565b606060405180602001604052806000815250905090565b60606116c582610d2e565b5060006116d06116a3565b905060008151116116f0576040518060200160405280600081525061171b565b806116fa84611c29565b60405160200161170b9291906129b9565b6040516020818303038152906040525b915050919050565b6000634906490660e01b7bffffffffffffffffffffffffffffffffffffffffffffffffffffffff1916827bffffffffffffffffffffffffffffffffffffffffffffffffffffffff1916148061177d575061177c82611cf7565b5b9050919050565b60006002600083815260200190815260200160002060009054906101000a900473ffffffffffffffffffffffffffffffffffffffff169050919050565b80806117fa5750600073ffffffffffffffffffffffffffffffffffffffff168273ffffffffffffffffffffffffffffffffffffffff1614155b1561192e57600061180a84610d2e565b9050600073ffffffffffffffffffffffffffffffffffffffff168373ffffffffffffffffffffffffffffffffffffffff161415801561187557508273ffffffffffffffffffffffffffffffffffffffff168173ffffffffffffffffffffffffffffffffffffffff1614155b801561188857506118868184610c20565b155b156118ca57826040517fa9fbf51f0000000000000000000000000000000000000000000000000000000081526004016118c191906122b4565b60405180910390fd5b811561192c57838573ffffffffffffffffffffffffffffffffffffffff168273ffffffffffffffffffffffffffffffffffffffff167f8c5be1e5ebec7d5bd14f71427d1e84f3dd0314c0f7b2291e5b200ac8c7c3b92560405160405180910390a45b505b836004600085815260200190815260200160002060006101000a81548173ffffffffffffffffffffffffffffffffffffffff021916908373ffffffffffffffffffffffffffffffffffffffff16021790555050505050565b61199082826108ed565b6119d35780826040517fe2517d3f0000000000000000000000000000000000000000000000000000000081526004016119ca929190612d67565b60405180910390fd5b5050565b6119e18383611dd9565b6119f66119ec610df3565b60008585856114f2565b505050565b60008073ffffffffffffffffffffffffffffffffffffffff168373ffffffffffffffffffffffffffffffffffffffff1614158015611ab357508273ffffffffffffffffffffffffffffffffffffffff168473ffffffffffffffffffffffffffffffffffffffff161480611a745750611a738484610c20565b5b80611ab257508273ffffffffffffffffffffffffffffffffffffffff16611a9a83610db6565b73ffffffffffffffffffffffffffffffffffffffff16145b5b90509392505050565b600073ffffffffffffffffffffffffffffffffffffffff168273ffffffffffffffffffffffffffffffffffffffff1603611b2e5760006040517f64a0ae92000000000000000000000000000000000000000000000000000000008152600401611b2591906122b4565b60405180910390fd5b6000611b3c83836000610f5f565b9050600073ffffffffffffffffffffffffffffffffffffffff168173ffffffffffffffffffffffffffffffffffffffff1603611baf57816040517f7e273289000000000000000000000000000000000000000000000000000000008152600401611ba691906124db565b60405180910390fd5b8373ffffffffffffffffffffffffffffffffffffffff168173ffffffffffffffffffffffffffffffffffffffff1614611c23578382826040517f64283d7b000000000000000000000000000000000000000000000000000000008152600401611c1a93929190612946565b60405180910390fd5b50505050565b606060006001611c3884611ed2565b01905060008167ffffffffffffffff811115611c5757611c56612345565b5b6040519080825280601f01601f191660200182016040528015611c895781602001600182028036833780820191505090505b509050600082602083010190505b600115611cec578080600190039150507f3031323334353637383961626364656600000000000000000000000000000000600a86061a8153600a8581611ce057611cdf612d90565b5b04945060008503611c97575b819350505050919050565b60007f80ac58cd000000000000000000000000000000000000000000000000000000007bffffffffffffffffffffffffffffffffffffffffffffffffffffffff1916827bffffffffffffffffffffffffffffffffffffffffffffffffffffffff19161480611dc257507f5b5e139f000000000000000000000000000000000000000000000000000000007bffffffffffffffffffffffffffffffffffffffffffffffffffffffff1916827bffffffffffffffffffffffffffffffffffffffffffffffffffffffff1916145b80611dd25750611dd182612025565b5b9050919050565b600073ffffffffffffffffffffffffffffffffffffffff168273ffffffffffffffffffffffffffffffffffffffff1603611e4b5760006040517f64a0ae92000000000000000000000000000000000000000000000000000000008152600401611e4291906122b4565b60405180910390fd5b6000611e5983836000610f5f565b9050600073ffffffffffffffffffffffffffffffffffffffff168173ffffffffffffffffffffffffffffffffffffffff1614611ecd5760006040517f73c6ac6e000000000000000000000000000000000000000000000000000000008152600401611ec491906122b4565b60405180910390fd5b505050565b600080600090507a184f03e93ff9f4daa797ed6e38ed64bf6a1f0100000000000000008310611f30577a184f03e93ff9f4daa797ed6e38ed64bf6a1f0100000000000000008381611f2657611f25612d90565b5b0492506040810190505b6d04ee2d6d415b85acef81000000008310611f6d576d04ee2d6d415b85acef81000000008381611f6357611f62612d90565b5b0492506020810190505b662386f26fc100008310611f9c57662386f26fc100008381611f9257611f91612d90565b5b0492506010810190505b6305f5e1008310611fc5576305f5e1008381611fbb57611fba612d90565b5b0492506008810190505b6127108310611fea576127108381611fe057611fdf612d90565b5b0492506004810190505b6064831061200d576064838161200357612002612d90565b5b0492506002810190505b600a831061201c576001810190505b80915050919050565b60007f01ffc9a7000000000000000000000000000000000000000000000000000000007bffffffffffffffffffffffffffffffffffffffffffffffffffffffff1916827bffffffffffffffffffffffffffffffffffffffffffffffffffffffff1916149050919050565b6000604051905090565b600080fd5b600080fd5b60007fffffffff0000000000000000000000000000000000000000000000000000000082169050919050565b6120d8816120a3565b81146120e357600080fd5b50565b6000813590506120f5816120cf565b92915050565b60006020828403121561211157612110612099565b5b600061211f848285016120e6565b91505092915050565b60008115159050919050565b61213d81612128565b82525050565b60006020820190506121586000830184612134565b92915050565b600081519050919050565b600082825260208201905092915050565b60005b8381101561219857808201518184015260208101905061217d565b60008484015250505050565b6000601f19601f8301169050919050565b60006121c08261215e565b6121ca8185612169565b93506121da81856020860161217a565b6121e3816121a4565b840191505092915050565b6000602082019050818103600083015261220881846121b5565b905092915050565b6000819050919050565b61222381612210565b811461222e57600080fd5b50565b6000813590506122408161221a565b92915050565b60006020828403121561225c5761225b612099565b5b600061226a84828501612231565b91505092915050565b600073ffffffffffffffffffffffffffffffffffffffff82169050919050565b600061229e82612273565b9050919050565b6122ae81612293565b82525050565b60006020820190506122c960008301846122a5565b92915050565b6122d881612293565b81146122e357600080fd5b50565b6000813590506122f5816122cf565b92915050565b6000806040838503121561231257612311612099565b5b6000612320858286016122e6565b925050602061233185828601612231565b9150509250929050565b600080fd5b600080fd5b7f4e487b7100000000000000000000000000000000000000000000000000000000600052604160045260246000fd5b61237d826121a4565b810181811067ffffffffffffffff8211171561239c5761239b612345565b5b80604052505050565b60006123af61208f565b90506123bb8282612374565b919050565b600067ffffffffffffffff8211156123db576123da612345565b5b6123e4826121a4565b9050602081019050919050565b82818337600083830152505050565b600061241361240e846123c0565b6123a5565b90508281526020810184848401111561242f5761242e612340565b5b61243a8482856123f1565b509392505050565b600082601f8301126124575761245661233b565b5b8135612467848260208601612400565b91505092915050565b6000806040838503121561248757612486612099565b5b6000612495858286016122e6565b925050602083013567ffffffffffffffff8111156124b6576124b561209e565b5b6124c285828601612442565b9150509250929050565b6124d581612210565b82525050565b60006020820190506124f060008301846124cc565b92915050565b6000806040838503121561250d5761250c612099565b5b600061251b85828601612231565b925050602083013567ffffffffffffffff81111561253c5761253b61209e565b5b61254885828601612442565b9150509250929050565b60008060006060848603121561256b5761256a612099565b5b6000612579868287016122e6565b935050602061258a868287016122e6565b925050604061259b86828701612231565b9150509250925092565b6000819050919050565b6125b8816125a5565b81146125c357600080fd5b50565b6000813590506125d5816125af565b92915050565b6000602082840312156125f1576125f0612099565b5b60006125ff848285016125c6565b91505092915050565b612611816125a5565b82525050565b600060208201905061262c6000830184612608565b92915050565b6000806040838503121561264957612648612099565b5b6000612657858286016125c6565b9250506020612668858286016122e6565b9150509250929050565b60006020828403121561268857612687612099565b5b6000612696848285016122e6565b91505092915050565b6126a881612128565b81146126b357600080fd5b50565b6000813590506126c58161269f565b92915050565b600080604083850312156126e2576126e1612099565b5b60006126f0858286016122e6565b9250506020612701858286016126b6565b9150509250929050565b600067ffffffffffffffff82111561272657612725612345565b5b61272f826121a4565b9050602081019050919050565b600061274f61274a8461270b565b6123a5565b90508281526020810184848401111561276b5761276a612340565b5b6127768482856123f1565b509392505050565b600082601f8301126127935761279261233b565b5b81356127a384826020860161273c565b91505092915050565b600080600080608085870312156127c6576127c5612099565b5b60006127d4878288016122e6565b94505060206127e5878288016122e6565b93505060406127f687828801612231565b925050606085013567ffffffffffffffff8111156128175761281661209e565b5b6128238782880161277e565b91505092959194509250565b6000806040838503121561284657612845612099565b5b6000612854858286016122e6565b9250506020612865858286016122e6565b9150509250929050565b7f4e487b7100000000000000000000000000000000000000000000000000000000600052602260045260246000fd5b600060028204905060018216806128b657607f821691505b6020821081036128c9576128c861286f565b5b50919050565b7f4e487b7100000000000000000000000000000000000000000000000000000000600052601160045260246000fd5b600061290982612210565b91507fffffffffffffffffffffffffffffffffffffffffffffffffffffffffffffffff820361293b5761293a6128cf565b5b600182019050919050565b600060608201905061295b60008301866122a5565b61296860208301856124cc565b61297560408301846122a5565b949350505050565b600081905092915050565b60006129938261215e565b61299d818561297d565b93506129ad81856020860161217a565b80840191505092915050565b60006129c58285612988565b91506129d18284612988565b91508190509392505050565b60008190508160005260206000209050919050565b60006020601f8301049050919050565b600082821b905092915050565b600060088302612a3f7fffffffffffffffffffffffffffffffffffffffffffffffffffffffffffffffff82612a02565b612a498683612a02565b95508019841693508086168417925050509392505050565b6000819050919050565b6000612a86612a81612a7c84612210565b612a61565b612210565b9050919050565b6000819050919050565b612aa083612a6b565b612ab4612aac82612a8d565b848454612a0f565b825550505050565b600090565b612ac9612abc565b612ad4818484612a97565b505050565b5b81811015612af857612aed600082612ac1565b600181019050612ada565b5050565b601f821115612b3d57612b0e816129dd565b612b17846129f2565b81016020851015612b26578190505b612b3a612b32856129f2565b830182612ad9565b50505b505050565b600082821c905092915050565b6000612b6060001984600802612b42565b1980831691505092915050565b6000612b798383612b4f565b9150826002028217905092915050565b612b928261215e565b67ffffffffffffffff811115612bab57612baa612345565b5b612bb5825461289e565b612bc0828285612afc565b600060209050601f831160018114612bf35760008415612be1578287015190505b612beb8582612b6d565b865550612c53565b601f198416612c01866129dd565b60005b82811015612c2957848901518255600182019150602085019450602081019050612c04565b86831015612c465784890151612c42601f891682612b4f565b8355505b6001600288020188555050505b505050505050565b6000604082019050612c7060008301856122a5565b612c7d60208301846124cc565b9392505050565b600081519050919050565b600082825260208201905092915050565b6000612cab82612c84565b612cb58185612c8f565b9350612cc581856020860161217a565b612cce816121a4565b840191505092915050565b6000608082019050612cee60008301876122a5565b612cfb60208301866122a5565b612d0860408301856124cc565b8181036060830152612d1a8184612ca0565b905095945050505050565b600081519050612d34816120cf565b92915050565b600060208284031215612d5057612d4f612099565b5b6000612d5e84828501612d25565b91505092915050565b6000604082019050612d7c60008301856122a5565b612d896020830184612608565b9392505050565b7f4e487b7100000000000000000000000000000000000000000000000000000000600052601260045260246000fdfea26469706673582212204aca728be2d66bcacbb9d883cee5f9b60a6da10a747c567212a3eb1448b77b5264736f6c634300081c0033",
  "linkReferences": {},
  "deployedLinkReferences": {}
}